:100000000C948E000C94690C0C94900C0C94B6001B
:100010000C94B6000C94B6000C94B6000C94B60088
:100020000C94B6000C94B6000C94B6000C945E0AC6
:100030000C94B6000C94B6000C94B6000C94B60068
:100040000C94B70C0C94B6000C9429100C945B1013
:100050000C94B6000C94B6000C94B6000C94B60048
:100060000C94B6000C94B600526164696F4D616ED9
:10007000616765722E73656E64746F206661696C6A
:100080006564002C207A3D00633D002C2000793D02
:10009000003A20003B20736574757020636F6D70AB
:1000A0006C657465204020003A20436875636B2EB0
:1000B00073657475702829202E2E2E00000000080C
:1000C000000201000003040700000000000000001F
:1000D00001020408102040800102040810200102DF
:1000E00004081020040404040404040402020202AC
:1000F00002020303030303030000000023002600A1
:10010000290000000000250028002B00000000004E
:10011000240027002A009005A0078B1011241FBE81
:10012000CFEFD8E0DEBFCDBF12E0A0E0B1E0E6EE59
:10013000FDE202C005900D92A23FB107D9F725E07C
:10014000A2EFB2E001C01D92A931B207E1F711E0C0
:10015000CCE1D1E004C02297FE010E945516C631C1
:10016000D107C9F70E94CF100C94F1160C9400002F
:10017000282FFC0180E09E2F921B961750F491913E
:10018000892798E03CE8869508F483279A95D9F763
:10019000F2CF0895AF92BF92CF92DF92EF92FF928B
:1001A0000F931F93CF93DF931F92CDB7DEB75C0100
:1001B000D62EC72E062F172F7C0182E0E80EF11CE9
:1001C000F80161918F01C50169830E94D31669818D
:1001D000681719F0C5010E94DB16FFEFAF1ABF0ABE
:1001E000AE14BF0469F78D2D9C2D0F90DF91CF9138
:1001F0001F910F91FF90EF90DF90CF90BF90AF9045
:1002000008950F931F93CF93DF938C01EB010E940E
:10021000D3168883C80101960E94D3168983CE0124
:10022000DF91CF911F910F9108950F931F93CF935B
:10023000DF93EC010E94010D088119812A813B8125
:10024000601B710B820B930BDF91CF911F910F916C
:1002500008950F931F93CF93DF93EC018AE090E012
:100260000E94D3168E010E5F1F4F8F3F29F581E14B
:100270000E94A50D9D838C839B838A8399838883A9
:100280006BE071E08CE794E00E943F116881798116
:100290004AE050E08CE794E00E941112BE018AE02F
:1002A00090E00E94CA00B8018CE090E0DF91CF910D
:1002B0001F910F910C94CA00BE018AE090E00E9449
:1002C0000101B8018CE090E00E94010161E271E05F
:1002D0008CE794E00E943F11688179814AE050E008
:1002E0008CE794E00E94091260E371E08CE794E0EF
:1002F0000E943F116A817B814AE050E08CE794E0E4
:10030000DF91CF911F910F910C941112CF93DF9336
:10031000EC0160E081E10E944A0E62E08FE00E9401
:100320004A0E62E084E00E944A0E0E94010DAB0179
:10033000BC012AE030E08CE794E00E94291268EAD0
:1003400070E08CE794E00E941C11CE010E9429010C
:1003500064E970E08CE794E00E941C110E94010D9A
:10036000AB01BC012AE030E08CE794E0DF91CF9153
:100370000C945412AF92BF92CF92DF92EF92FF9201
:100380000F931F93CF93DF93EC0181E10E94A50DA2
:100390009D838C832881398182179307ACF49983DC
:1003A000888369E371E08CE794E00E943F116881E3
:1003B00079814AE050E08CE794E00E941112BE017E
:1003C0008AE090E00E94CA008C819D812A813B8155
:1003D00028173907BCF49B838A8369E371E08CE7B3
:1003E00094E00E943F11DE016D917D918D014AE004
:1003F00050E08CE794E00E941112B8018CE090E08C
:100400000E94CA00EA80FB800027F7FC0095102FAD
:1004100028813981442737FD4095542F6C817D8197
:10042000882777FD8095982F1F921F921F92EFEFDC
:10043000EF93A12CB12C65010E9491130E94DC1452
:100440009B01AC0160E070E08FE793E40E94D81359
:10045000688B798B8A8B9B8B8FE00E94B90E21E091
:100460000F900F900F900F90892B09F020E02C8BAC
:1004700084E00E94B90E21E0892B09F020E02D8B49
:1004800069E471E08CE794E00E943F116C817D810A
:100490004AE050E08CE794E00E94091261E571E0C7
:1004A0008CE794E00E943F11488959896A897B89C9
:1004B00022E030E08CE794E00E9451136AE571E09D
:1004C0008CE794E00E943F116C8970E04AE050E0B4
:1004D0008CE794E00E9409126FE571E08CE794E0EC
:1004E0000E943F116D8970E04AE050E08CE794E093
:1004F0000E94111286E0FE013696DF011D928A9558
:10050000E9F7688979898A899B890E94AE146F838B
:100510008C89811102C082E08B878D89811103C093
:100520008B858F5F8B876FEF70E080E090E00E949B
:100530006D1368876FEF70E080E090E00E946D13AC
:1005400069876FEF70E080E090E00E946D136A872A
:10055000DF91CF911F910F91FF90EF90DF90CF909F
:10056000BF90AF9008950F931F93CF93DF938C01AB
:10057000C0E0D0E061EB71E08CE794E00E943F11B5
:10058000F801EC0FFD1F40E150E061818CE794E041
:100590000E94361264E172E08CE794E00E943F1101
:1005A0002196C430D10531F7DF91CF911F910F9182
:1005B0000895CF92DF92EF92FF920F931F93CF9304
:1005C000DF93CDB7DEB76C970FB6F894DEBF0FBEE2
:1005D000CDBF8C016C018FEFC81AD80AF8011182C7
:1005E00012821382148264E671E08CE794E00E9428
:1005F0003F11C8010E94B3020E94010D0E946513C1
:10060000E12CF12C6FEF70E080E090E00E946D1320
:10061000F801EE0DFF1D6183FFEFEF1AFF0A83E083
:10062000E816F10479F763E0C6010E94B800F8010A
:1006300084836DE671E08CE794E00E943F11C8016D
:100640000E94B30263E0C6010E94B800F8019481E1
:10065000891314C067E771E08CE794E00E943F11B2
:1006600063E0C6010E94B80040E150E0682F8CE7CB
:1006700094E00E94361266E871E002C061E971E020
:100680008CE794E00E945E1181E0898382E08A8396
:1006900083E08B8384E08C83F80181819281A38144
:1006A000B4818D839E83AF83B88768E0CE010196C5
:1006B0000E94B800898764EA71E08CE794E00E94A8
:1006C0003F118E010F5F1F4F7E01FAE0EF0EF11C0C
:1006D00061EB71E08CE794E00E943F11F8016191B9
:1006E0008F0140E150E08CE794E00E94361264E113
:1006F00072E08CE794E00E943F110E151F0541F750
:100700006AEA71E08CE794E00E943F1168E0CE0154
:1007100001960E94B80040E150E0682F8CE794E019
:100720000E9436128CE794E00E9448116C960FB636
:10073000F894DEBF0FBECDBFDF91CF911F910F9117
:10074000FF90EF90DF90CF9008950F931F93CF937A
:10075000DF93EC0164EB71E08CE794E00E945E11A2
:10076000CE010E94D90281E088830BE010E0C8012D
:100770000E94D316FE01E00FF11F3A9780830F5FAE
:100780001F4F0F30110599F76DEC71E08CE794E085
:100790000E943F114AE050E068818CE794E00E949B
:1007A000361267ED71E08CE794E00E943F11CE01B4
:1007B0000E94B3028CE794E0DF91CF911F910F91DB
:1007C0000C94481126E040E052EC61E070E08CE7C8
:1007D00094E00E94C70F85E093E00E94A5038AE0A1
:1007E00093E00E94860161E083E00E944A0E60E08F
:1007F00083E00E94830E62E084E00E944A0E61E082
:1008000085E00E944A0E80E293E00E94500681112A
:1008100006C064EE71E08CE794E00E945E1143E054
:1008200050E062E070E08BE294E00C94EB0ACF932E
:10083000C82F8091F90281110DC00E94010D6093B3
:10084000F5027093F6028093F7029093F80281E02C
:100850008093F9028091F402882361F085EF92E0A1
:100860000E941501683B7B4081059105C8F11092FB
:10087000F40236C02091F2023091F302809104011B
:1008800090910501280F391F3093F3022093F20253
:100890002F3F31053CF02FEF3FEF309305012093C0
:1008A000040116C0121613069CF021E030E03093CC
:1008B00005012093040181E08093F4020E94010D60
:1008C0006093F5027093F6028093F7029093F8021A
:1008D0006091F2027091F3028C2FCF910C94C20DB3
:1008E000CF910895CF92DF92EF92FF92CF93C82FCE
:1008F0008FE00E94A50DBC01882777FD8095982F79
:100900000E94DC1423E333E343E550E40E94901596
:1009100020E030E040E85AE30E9490156B017C0132
:1009200081E093E00E941501693E734081059105C5
:1009300070F060EF71E08CE794E00E943F1122E0DC
:1009400030E0B701A6018CE794E00E9453132DEC30
:100950003CEC4CE450E4C701B6010E943D1487FF13
:1009600009C061E08C2FCF91FF90EF90DF90CF9086
:100970000C94830E8C2FCF91FF90EF90DF90CF904F
:100980000C9417040F931F93CF93DF9300D000D0E4
:10099000CDB7DEB70E94010D69837A838B839C8378
:1009A0008AE093E00E94BA0185E00E94720481E02F
:1009B00093E00E941501693E73408105910508F49A
:1009C00052C00E94010DAB01BC012AE030E08CE76F
:1009D00094E00E94291261E970E08CE794E00E94A3
:1009E0001C116EE870E08CE794E00E941C114091AD
:1009F0001A0350911B0360911C0370911D0324E0A6
:100A000030E08CE794E00E9451136BE870E08CE7D3
:100A100094E00E941C1168E870E08CE794E00E946A
:100A20001C1160911E0370E04AE050E08CE794E0F6
:100A30000E94091263E870E08CE794E00E941C11A8
:100A400060911F0370E04AE050E08CE794E00E9460
:100A500011120E94010D60930103709302038093B1
:100A600003039093040322E046E060E173E080E238
:100A700093E00E940D06811106C068E670E08CE7E5
:100A800094E00E944C11CE0101960E941501CE0106
:100A900001960E94150105E010E020E030E0061B01
:100AA000170B280B390B063011052105310540F4D1
:100AB000CE0101960E94150115E0161BB1F001C090
:100AC00015E06AEF71E08CE794E00E943F114AE084
:100AD00050E0612F8CE794E00E943D12612F70E09E
:100AE00080E090E00E94300D12C062E072E08CE77E
:100AF00094E00E943F11CE0101960E941501AB01C6
:100B0000BC012AE030E08CE794E00E9454120F9080
:100B10000F900F900F90DF91CF911F910F9108953B
:100B200029E634E04AE068E08BE294E00E94C20AE1
:100B300041E06BE274E080E293E00E940C091092C5
:100B40000B0310920A038FEF93E090930D038093B1
:100B50000C030E94010D60930103709302038093C4
:100B60000303909304030895CF93CFB7F894809133
:100B70006804811127C0EEEEF0E08491EAEDF0E028
:100B80009491E82FF0E0EE0FFF1FE45FFE4FA59178
:100B9000B4918C91892321F461E08AE00E94830E54
:100BA00061E08AE00E944A0E8CB580618CBD8CB5F4
:100BB00080648CBD61E08DE00E944A0E61E08BE0B4
:100BC0000E944A0E809168048F5F80936804CFBFB3
:100BD000CF9108959FB7F89480916804882319F005
:100BE00081508093680480916804811105C08CB5A0
:100BF0008F7B8CBD109267049FBF0895FC017183A9
:100C0000608342830895DC018D919C91DC01ED911C
:100C1000FC910488F589E02D0994EF92FF920F93DF
:100C20001F93CF93DF931F92CDB7DEB77C018B016B
:100C3000622F49830E940306D7018D919C91DC01AC
:100C4000ED91FC910680F781E02D4981B8010F906C
:100C5000DF91CF911F910F91FF90EF900994DC01EC
:100C60008D919C91DC01ED91FC910688F789E02D36
:100C700009941F93CF93DF93EC01162F88819981FC
:100C8000DC01ED91FC910288F389E02D0995612F3B
:100C9000CE010E942F061A83DF91CF911F910895F4
:100CA0001F93CF93DF93EC0188819981DC01ED9153
:100CB000FC910190F081E02D0995182F882321F0F7
:100CC0006A81CE010E943906812FDF91CF911F9159
:100CD000089581E00895FC0165830895FC01648313
:100CE0000895FC0162870895FC0163870895FC0163
:100CF00064870895FC012585622B409564236587F0
:100D00000895FC0186810895FC0187810895FC0106
:100D100080850895FC0181850895CF93DF93EC01D0
:100D2000E881F9810280F381E02DCE0109958111DE
:100D300003C00E94670CF4CFDF91CF910895CF9349
:100D4000DF93EC018A819B81029719F40E94670C62
:100D5000F9CF81E0DF91CF9108958F929F92AF926A
:100D6000BF92CF92DF92EF92FF92CF93DF93EC018D
:100D70006B010E94010D4B015C01E12CF12C0E94E2
:100D8000010D681979098A099B096C157D058E0585
:100D90009F0560F4E881F9810280F381E02DCE01A6
:100DA0000995811105C00E94670CE9CF80E001C060
:100DB00081E0DF91CF91FF90EF90DF90CF90BF90D7
:100DC000AF909F908F9008958F929F92AF92BF9215
:100DD000CF92DF92EF92FF92CF93DF93EC016B0102
:100DE0000E94010D4B015C01E12CF12C0E94010DD0
:100DF000681979098A099B096C157D058E059F057F
:100E000038F48A819B81029729F40E94670CEECF07
:100E100080E001C081E0DF91CF91FF90EF90DF9003
:100E2000CF90BF90AF909F908F900895FC018AE182
:100E300092E091838083138212828FEF8483828772
:100E4000838714861586108A1786128A118A148A57
:100E5000138A089508950895FC01758364830895A5
:100E6000FC01778366830895FC0173836283089590
:100E7000FC0184E492E091838083738362835583D1
:100E800044833783268308956EBD00000DB407FEAA
:100E9000FDCF8EB508958CB580688CBD08958CB556
:100EA0008F778CBD0895FC0126813781211531058E
:100EB00079F02130310541F02230310539F023300D
:100EC000310531F49CE005C094E003C098E001C016
:100ED00090E08CB5837F892B8CBD848195810197AF
:100EE00019F48CB5806202C08CB58F7D8CBD828177
:100EF000938101978430910528F4FC01EC5AFD4F51
:100F0000908101C091E02CB5892F83702C7F822BBA
:100F10008CBD8DB592FB992790F98E7F892B8DBD65
:100F20000C94B4050C94EA05CF93DF93EC010E9476
:100F300038078CE592E099838883DF91CF910895FB
:100F400020E030E040E050E060E070E089E694E0CE
:100F50000C949407CF93DF93EC018D899E89DC017B
:100F6000ED91FC910680F781E02D099561E08F8974
:100F70000E944A0E61E08F890E94830E64E670E051
:100F800080E090E00E94300D81E0DF91CF910895E4
:100F9000EF92FF920F931F93CF93DF931F92CDB7E2
:100FA000DEB77C018A0169830E94160780E792E020
:100FB000F70191838083168B058B6981678B0F9076
:100FC000DF91CF911F910F91FF90EF9008950F93B4
:100FD0001F93CF93DF93EC01062F1FB7F89460E0C7
:100FE0008F890E94830E8D899E89DC01ED91FC9191
:100FF0000190F081E02D602F0995082F61E08F8925
:101000000E94830E1FBF802FDF91CF911F910F9100
:1010100008950F931F93CF93DF93EC01062F1FB713
:10102000F89460E08F890E94830E8D899E89DC018F
:10103000ED91FC910190F081E02D602F09958D8953
:101040009E89DC01ED91FC910190F081E02D60E042
:101050000995082F61E08F890E94830E1FBF802FA2
:10106000DF91CF911F910F910895EF92FF920F930F
:101070001F93CF93DF931F92CDB7DEB77C01162F5E
:101080000FB7F89460E0DC0157968C9149830E9479
:10109000830EF70185899689DC01ED91FC91019021
:1010A000F081E02D612F0995182FF7018589968928
:1010B000DC01ED91FC910190F081E02D4981642FDC
:1010C000099561E0F70187890E94830E0FBF812F88
:1010D0000F90DF91CF911F910F91FF90EF900895A6
:1010E000AF92BF92DF92EF92FF920F931F93CF9335
:1010F000DF9300D0CDB7DEB78C01D62EF22EEFB63F
:10110000F89460E0DC0157968C9149835A830E94E1
:10111000830EF80185899689DC01ED91FC9101909F
:10112000F081E02D6D2D0995D82E4981A42E5A818C
:10113000B52EF40EFA1479F0F80185899689DC0150
:10114000ED91FC910190F081E02D60E00995F501B1
:1011500081935F01EFCF61E0D80157968C910E9497
:10116000830EEFBE8D2D0F900F90DF91CF911F91C9
:101170000F91FF90EF90DF90BF90AF900895AF92E6
:10118000BF92DF92EF92FF920F931F93CF93DF9363
:1011900000D0CDB7DEB78C01D62EF22EEFB6F89484
:1011A00060E0DC0157968C9149835A830E94830E3C
:1011B000F80185899689DC01ED91FC910190F0811F
:1011C000E02D6D2D0995D82E4981A42E5A81B52E7A
:1011D000F40EFA1471F0F80185899689D5016D91A4
:1011E0005D01DC01ED91FC910190F081E02D09950C
:1011F000F0CF61E0F80187890E94830EEFBE8D2D4C
:101200000F900F90DF91CF911F910F91FF90EF9072
:10121000DF90BF90AF900895CF93DF93EC010E94D1
:10122000FE051B821C821D821E821F8288EC90E0BC
:101230009987888783E08A87DF91CF910895CF933C
:10124000DF93EC018F890E94B90E21E0892B09F40C
:1012500020E08A8D8227DF91CF910895FC01808D57
:101260000C94830EFC01238D6227818D0C94830ED8
:10127000CF93DF93EC018A819B81019761F060E05D
:10128000CE010E94320960E0CE010E942E0981E069
:1012900090E09B838A83DF91CF910895862F869576
:1012A0008695887098E0980F891749F0E82FF0E04C
:1012B000EA56FD4F2081621719F08F5FF5CF80E06D
:1012C00008951F93CF93DF93EC010E941F09882399
:1012D00019F09F8D9F5F9F8F9E8D891771F098A148
:1012E000903518F42BE030E002C02DE130E098A1F9
:1012F000290F311D28A38E8F03C088A18C5E88A37F
:1013000088A1803A08F46EC08AA19BA19695879522
:101310009BA38AA38F8D853028F08AA19BA198601A
:101320009BA38AA388A1805A88A31F8E89A18823A2
:1013300009F446C08CA18F5F8CA38C3008F452C096
:101340006AA17BA16F73CE010E944E09182F6AA17A
:101350007BA146E0769567954A95E1F7CE010E941C
:101360004E0990E1199F90011124822BBE0167590B
:101370007F4FFB019081DE01A859BF4F9923B1F047
:10138000FB01908121E0290F2083AE01490F511DFF
:10139000FA0185A3FB0190818C91981778F019A22E
:1013A00081E08C8FCE010E94380908C08C939C91FB
:1013B000973090F09C91943478F4E2CF1CA212C044
:1013C0008AA19BA188339B4069F481E089A31CA278
:1013D000C759DF4F188206C019A28F8598890196D8
:1013E000988B8F87DF91CF911F910895CF92DF92D5
:1013F000EF92FF920F931F93CF93DF93EC018C0139
:1014000004591F4FF801808191E0980F908381115A
:1014100036C06E01FAE6CF0ED11CF6018081EF5680
:10142000FF4F9081891748F0CE010E9438098B89BF
:101430009C8901969C8B8B8B22C0FE01E80FF11DCD
:10144000E359FF4F608170E07E01FBE6EF0EF11C77
:10145000F701808191E0980F908302C075956795A0
:101460008A95E2F76170CE010E942E09F701808112
:10147000863028F01082F60180818F5F8083F8012A
:101480008081883008F01082DF91CF911F910F91F9
:10149000FF90EF90DF90CF900895FC01228133817F
:1014A0002330310511F40C946109FC012281338150
:1014B0002230310511F40C94F60908951F920F9211
:1014C0000FB60F9211242F933F934F935F936F9317
:1014D0007F938F939F93AF93BF93EF93FF938091ED
:1014E0007104909172040E944D0AFF91EF91BF9197
:1014F000AF919F918F917F916F915F914F913F91AC
:101500002F910F900FBE0F901F9018958CE10895AA
:10151000DF92EF92FF920F931F93CF93DF93EC0133
:101520007B018A01E881F9810280F381E02D099530
:10153000D82E8823F1F0E114F104C9F0011511054A
:10154000B1F08A8D282F30E023503109F801408115
:1015500050E04217530714F084508083F801408113
:1015600050E0BE01615E7F4FC7010E94CA161BAEEC
:101570001A8E8D2DDF91CF911F910F91FF90EF90DB
:10158000DF9008951F93CF93DF93EC01162F642F04
:10159000A9010E94C8078AEA92E0998388831BAE5A
:1015A0008CE0888F198FDF91CF911F9108956F7113
:1015B00060620C9435086FEF0C94E70761EE0C94B1
:1015C000E70762EE0C94E707462F4F7765E00E942D
:1015D000D70A81E00895440F551F467062307105A7
:1015E00011F4406204C06130710509F4486066E09E
:1015F0000E94D70A81E00895CF93DF93EC018A819E
:101600009B81019769F0488D60E0CE010E94D70A66
:1016100060E0898D0E94830E81E090E09B838A8345
:10162000DF91CF9108951F93CF93DF93EC018A81CF
:101630009B810297D1F4CE010E94DB0A182F8073A0
:1016400019F40E94670CF7CF40E367E0CE010E94D7
:10165000D70A14FF03C0CE010E94DE0ACE010E9409
:10166000FC0A15FB882780F901C080E0DF91CF914B
:101670001F910895CF93DF93EC018A819B8103979B
:1016800071F0488D436060E0CE010E94D70A61E0AE
:10169000898D0E94830E83E090E09B838A83DF9193
:1016A000CF910895CF93DF93EC018A819B810297BC
:1016B00091F060E0898D0E94830E488D426060E069
:1016C000CE010E94D70A61E0898D0E94830E82E0DC
:1016D00090E09B838A83DF91CF9108951F93CF93EE
:1016E000DF93EC01142F4D3100F58A858B8F8B85AC
:1016F0008C8F8C858D8F8D858E8F50E0CE014F968F
:101700000E94CA16CE010E94520B24E0210FAE01A6
:10171000455E5F4F60EBCE010E94BF088B899C89BC
:1017200001969C8B8B8B81E001C080E0DF91CF9193
:101730001F910895FC01828D8430C8F0838D8683CB
:10174000848D8783858D8087868D818785818111B2
:1017500007C096818481981719F086818F3F39F4EC
:10176000818992890196928B818B81E083AF089564
:101770000F931F93CF93DF93EC011BAD11112FC07B
:101780000E943A0B67E1CE010E94090880FD28C043
:1017900060E6CE010E940908082F813248F0CE0190
:1017A0000E94E10A1BAE1A8ECE010E94FC0A18C0EC
:1017B00040E467E0CE010E94D70A202FAE01455ECB
:1017C0005F4F61E6CE010E9470080A8FCE010E9431
:1017D0009A0B8BAD882319F0CE010E94FC0A1BAD39
:1017E000812FDF91CF911F910F910895FF920F9359
:1017F0001F93CF93DF931F92CDB7DEB78C01DC012F
:1018000055968D919C915697DC01ED91FC91068443
:10181000F785E02D60E070E00995C8010E94AA07F5
:10182000F82E811102C0F12C4AC061E0F801818DCF
:101830000E944A0E60E0D80159968C910E94830E56
:1018400040E767E0C8010E94D70A4FE26CE1C80197
:101850000E94D70A45E06DE1C8010E94D70A6DE1F8
:10186000C8010E9409088530F1F6C8010E94FC0AEF
:10187000C8010E94DE0AC8010E94E10A87E7898345
:1018800021E0AE014F5F5F4F60EBC8010E94BF08CF
:1018900067E1C8010E94090884FF05C043E760E5CD
:1018A000C8010E943508C8010E94DE0A62E0C80132
:1018B0000E94E40A4EE066E0C8010E94D70A8F2D1C
:1018C0000F90DF91CF911F910F91FF900895089590
:1018D00008951F920F920FB60F9211242F933F93EA
:1018E0004F935F936F937F938F939F93AF93BF9328
:1018F000EF93FF93E0910601F09107010995FF91A5
:10190000EF91BF91AF919F918F917F916F915F9177
:101910004F913F912F910F900FBE0F901F901895F0
:101920001F920F920FB60F9211242F933F934F9354
:101930005F936F937F938F939F93AF93BF93EF9337
:10194000FF93E0910801F09109010995FF91EF9152
:10195000BF91AF919F918F917F916F915F914F91C7
:101960003F912F910F900FBE0F901F9018951F92CF
:101970000F920FB60F9211242F933F938F939F9343
:10198000AF93BF938091740490917504A0917604F5
:10199000B09177043091730423E0230F2D3720F4A6
:1019A0000196A11DB11D05C026E8230F0296A11DB9
:1019B000B11D209373048093740490937504A093D5
:1019C0007604B09377048091780490917904A09183
:1019D0007A04B0917B040196A11DB11D8093780417
:1019E00090937904A0937A04B0937B04BF91AF9154
:1019F0009F918F913F912F910F900FBE0F901F904D
:101A000018952FB7F89460917404709175048091C3
:101A10007604909177042FBF08953FB7F894809192
:101A2000780490917904A0917A04B0917B0426B552
:101A3000A89B05C02F3F19F00196A11DB11D3FBF06
:101A40006627782F892F9A2F620F711D811D911D96
:101A500042E0660F771F881F991F4A95D1F70895B6
:101A60008F929F92AF92BF92CF92DF92EF92FF92AE
:101A70006B017C010E940D0D4B015C01C114D1046E
:101A8000E104F104F1F00E94670C0E940D0D681949
:101A900079098A099B09683E73408105910570F3B5
:101AA00021E0C21AD108E108F10888EE880E83E02F
:101AB000981EA11CB11CC114D104E104F10429F742
:101AC000DDCFFF90EF90DF90CF90BF90AF909F90D1
:101AD0008F900895789484B5826084BD84B58160C8
:101AE00084BD85B5826085BD85B5816085BDEEE626
:101AF000F0E0808181608083E1E8F0E01082808105
:101B000082608083808181608083E0E8F0E0808172
:101B100081608083E1EBF0E0808184608083E0EB92
:101B2000F0E0808181608083EAE7F0E0808184607A
:101B300080838081826080838081816080838081D6
:101B4000806880831092C10008958E3008F08E5016
:101B5000877020910A0190E4299F90011124822B23
:101B600080937C0080917A00806480937A008091D9
:101B70007A0086FDFCCF809178002091790090E07A
:101B8000922B08951F93CF93DF93182FEB0161E001
:101B90000E944A0E209711F460E004C0CF3FD105A7
:101BA00039F461E0812FDF91CF911F910C94830E66
:101BB000E12FF0E0E454FF4FE491E330F9F048F412
:101BC000E130B9F0E230A1F584B5806284BDC8BDD2
:101BD00034C0E730E9F0E83019F1E43049F580919C
:101BE0008000806280938000D0938B00C0938A0035
:101BF00024C084B5806884BDC7BD1FC080918000AB
:101C0000806880938000D0938900C093880015C0BD
:101C10008091B00080688093B000C093B3000DC085
:101C20008091B00080628093B000C093B40005C082
:101C3000C038D1050CF0B5CFAFCFDF91CF911F9158
:101C40000895833081F028F4813099F08230A1F03A
:101C500008958730A9F08830B9F08430D1F48091AC
:101C600080008F7D03C0809180008F7780938000FB
:101C7000089584B58F7702C084B58F7D84BD0895A3
:101C80008091B0008F7703C08091B0008F7D8093EA
:101C9000B0000895CF93DF9390E0FC01E053FF4F35
:101CA0002491FC01EC51FF4F8491882349F190E08D
:101CB000880F991FFC01E45FFE4FA591B4918E5FE0
:101CC0009E4FFC01C591D4919FB7611108C0F89453
:101CD0008C91209582238C93888182230AC0623064
:101CE00051F4F8948C91322F309583238C93888112
:101CF000822B888304C0F8948C91822B8C939FBF95
:101D0000DF91CF9108950F931F93CF93DF931F928D
:101D1000CDB7DEB7282F30E0F901E454FF4F8491AE
:101D2000F901E053FF4F1491F901EC51FF4F049179
:101D30000023C9F0882321F069830E94210E698164
:101D4000E02FF0E0EE0FFF1FEE5FFE4FA591B49184
:101D50009FB7F8948C91611103C01095812301C045
:101D6000812B8C939FBF0F90DF91CF911F910F918B
:101D70000895CF93DF93282F30E0F901E454FF4F0B
:101D80008491F901E053FF4FD491F901EC51FF4FD9
:101D9000C491CC2391F081110E94210EEC2FF0E030
:101DA000EE0FFF1FE850FF4FA591B4912C912D230A
:101DB00081E090E021F480E002C080E090E0DF91DB
:101DC000CF9108950E94C516FC01818D228D90E06F
:101DD000805C9F4F821B91098F7399270895FC01A6
:101DE000918D828D981731F0828DE80FF11D858DD0
:101DF00090E008958FEF9FEF0895FC01918D828D03
:101E0000981761F0828DDF01A80FB11D5D968C914E
:101E1000928D9F5F9F73928F90E008958FEF9FEF59
:101E2000089581E890E1892B49F080E090E0892BCA
:101E300029F00E94811081110C9400000895FC018A
:101E4000848DDF01A80FB11DA35ABF4F2C91848D43
:101E500090E001968F739927848FA689B7892C9378
:101E6000A089B1898C9180648C93938D848D981313
:101E700006C00288F389E02D80818F7D80830895DC
:101E8000CF93DF93EC01888D8823C9F0EA89FB8921
:101E9000808185FD05C0A889B9898C9186FD0FC018
:101EA0000FB607FCF5CF808185FFF2CFA889B989ED
:101EB0008C9185FFEDCFCE010E941F0FE7CFDF9100
:101EC000CF910895CF92DF92FF920F931F93CF93FC
:101ED000DF931F92CDB7DEB76C0181E0D601589633
:101EE0008C9358975B969C915B975C968C915C97D2
:101EF000981307C05096ED91FC915197808185FD14
:101F00002EC0F601038D10E00F5F1F4F0F731127D6
:101F1000F02EF601848DF81211C00FB607FCF9CF30
:101F2000D6015096ED91FC915197808185FFF1CFBC
:101F3000C60169830E941F0F6981EBCF838DE80F73
:101F4000F11DE35AFF4F6083D6015B960C935B97BC
:101F50005296ED91FC915397808180620CC0D6011E
:101F60005696ED91FC91579760835096ED91FC91B8
:101F7000519780818064808381E090E00F90DF91B1
:101F8000CF911F910F91FF90DF90CF900895BF9256
:101F9000CF92DF92EF92FF92CF93DF93EC016A0131
:101FA0007B01B22EE889F98982E08083411581EEB8
:101FB000580761057105A1F060E079E08DE390E0DC
:101FC000A70196010E9407162150310941095109C4
:101FD0005695479537952795211580E1380798F054
:101FE000E889F989108260E874E88EE190E0A70141
:101FF00096010E9407162150310941095109569551
:10200000479537952795EC85FD853083EE85FF85CF
:102010002083188EEC89FD89B082EA89FB89808152
:1020200080618083EA89FB89808188608083EA8976
:10203000FB89808180688083EA89FB8980818F7D2C
:102040008083DF91CF91FF90EF90DF90CF90BF9092
:1020500008951F920F920FB60F9211242F938F9312
:102060009F93EF93FF93E0918C04F0918D04808116
:10207000E0919204F091930482FD12C090818091CE
:1020800095048F5F8F7320919604821751F0E09131
:102090009504F0E0E458FB4F958F8093950401C0C0
:1020A0008081FF91EF919F918F912F910F900FBEA3
:1020B0000F901F9018951F920F920FB60F92112438
:1020C0002F933F934F935F936F937F938F939F9340
:1020D000AF93BF93EF93FF938CE794E00E941F0FA1
:1020E000FF91EF91BF91AF919F918F917F916F91F0
:1020F0005F914F913F912F910F900FBE0F901F90C6
:1021000018958CE794E00E94E40E21E0892B09F4F5
:1021100020E0822F089510927F0410927E0488EEB2
:1021200093E0A0E0B0E08093800490938104A093BA
:102130008204B093830484ED92E090937D048093B5
:102140007C0485EC90E0909389048093880484EC6F
:1021500090E090938B0480938A0480EC90E09093BD
:102160008D0480938C0481EC90E090938F04809395
:102170008E0482EC90E0909391048093900486EC1E
:1021800090E090939304809392041092950410929F
:1021900096041092970410929804089508950E944E
:1021A0006A0D0E94CE100E94E203C1E1DFE00E94AE
:1021B000C2042097E1F30E94110FF9CFCF92DF9272
:1021C000EF92FF920F931F93CF93DF937C016A01ED
:1021D000EB0100E010E00C151D0571F06991D701CD
:1021E000ED91FC910190F081E02DC7010995892BBB
:1021F00019F00F5F1F4FEFCFC801DF91CF911F91F3
:102200000F91FF90EF90DF90CF90089561157105C9
:1022100081F0DB010D900020E9F7AD01415051093B
:10222000461B570BDC01ED91FC910280F381E02D00
:10223000099480E090E00895EF92FF920F931F932E
:10224000CF93DF938C017B01C0E0D0E0F701EC0F6E
:10225000FD1F6491662359F0F801A081B181ED91D1
:10226000FC91C8010995892B11F02196EFCFCE0181
:10227000DF91CF911F910F91FF90EF9008950C94F3
:102280000611DC01ED91FC910190F081E02D0994A3
:1022900060EE72E00C9406110F931F93CF93DF93BF
:1022A000EC010E941C118C01CE010E944811800F8C
:1022B000911FDF91CF911F910F9108950F931F935D
:1022C000CF93DF93EC010E9406118C01CE010E9496
:1022D0004811800F911FDF91CF911F910F910895A9
:1022E0008F929F92AF92BF92DF92EF92FF920F93E5
:1022F0001F93CF93DF93CDB7DEB7A1970FB6F894B6
:10230000DEBF0FBECDBF7C01F42FD52ECB0119A2AD
:10231000223008F42AE08E010F5D1F4F822E912C8F
:10232000A12CB12C6F2F7D2DA50194010E940716C1
:10233000F22FD32ECA01015011096A3014F4E0E3E0
:1023400001C0E7E3E60FD801EC93232B242B252BC8
:1023500049F7B801C7010E940611A1960FB6F8947B
:10236000DEBF0FBECDBFDF91CF911F910F91FF90C8
:10237000EF90DF90BF90AF909F908F900895CF9295
:10238000DF92EF92FF920F931F93CF93DF93EC01B5
:102390006A017B012115310579F4E881F981019009
:1023A000F081E02D642FDF91CF911F910F91FF906D
:1023B000EF90DF90CF9009942A303105E9F477FF50
:1023C0001AC06DE20E9441118C0144275527BA01C1
:1023D0004C195D096E097F092AE0CE010E94701137
:1023E000800F911FDF91CF911F910F91FF90EF9080
:1023F000DF90CF9008952AE0B701A601CE01DF91CA
:10240000CF911F910F91FF90EF90DF90CF900C94A0
:1024100070119A01AB01662757FD6095762F0C94D9
:10242000BF110F931F93CF93DF93EC019A01AB0180
:10243000662757FD6095762F0E94BF118C01CE0153
:102440000E944811800F911FDF91CF911F910F9132
:1024500008952115310541F4DC01ED91FC910190C5
:10246000F081E02D642F09940C9470119A01462F8D
:1024700050E060E070E00C9429120F931F93CF930B
:10248000DF93EC019A01462F50E060E070E00E947B
:1024900029128C01CE010E944811800F911FDF91FB
:1024A000CF911F910F9108950F931F93CF93DF93B7
:1024B000EC010E9429128C01CE010E944811800F6C
:1024C000911FDF91CF911F910F9108954F925F92CD
:1024D0006F927F928F929F92AF92BF92CF92DF9234
:1024E000EF92FF920F931F93CF93DF93EC016A015A
:1024F0007B01B22E9A01AB01C701B6010E94F31510
:10250000882319F063EE72E027C026013701E894B2
:1025100077F82FEF3FEF4FE75FE7C301B2010E946B
:10252000F31581110DC02FEF3FEF4FE75FE7C301B8
:10253000B2010E943D1418161CF467EE72E00CC044
:102540002FEF3FEF4FE75FE4C701B6010E948C1504
:102550001816ACF46BEE72E0CE01DF91CF911F91B3
:102560000F91FF90EF90DF90CF90BF90AF909F9032
:102570008F907F906F905F904F900C9406112FEF8B
:102580003FEF4FE75FECC701B6010E943D1487FDA6
:10259000E1CF20E030E0A901C701B6010E943D145F
:1025A00087FF0AC06DE2CE010E9441118C01F7FA4B
:1025B000F094F7F8F09402C000E010E0A12C60E085
:1025C00070E080E09FE3AB1441F020E030E040E2B7
:1025D00051E40E944114A394F6CF9B01AC01C701C2
:1025E000B6010E94D9136B017C010E94AE142B012D
:1025F0003C010E94DA149B01AC01C701B6010E94A4
:10260000D8136B017C012AE0B301A201CE010E9424
:102610007011080F191FBB2039F06FEE72E0CE0168
:102620000E940611080F191F7B2C772041F120E032
:1026300030E040E251E4C701B6010E9490156B0101
:102640007C010E94A9144B01AA2497FCA094BA2CE7
:102650002AE030E0B501A401CE010E94BF11080FAD
:10266000191FC501B4010E94DC149B01AC01C70114
:10267000B6010E94D8136B017C017A94D6CFC801B1
:10268000DF91CF911F910F91FF90EF90DF90CF904E
:10269000BF90AF909F908F907F906F905F904F9082
:1026A00008950C9466120F931F93CF93DF93EC0160
:1026B0000E9466128C01CE010E944811800F911F6A
:1026C000DF91CF911F910F910895611571058105DB
:1026D000910511F00C94BC160895CF93DF9300D0B0
:1026E00000D0CDB7DEB79B01AC0161157105810546
:1026F000910569F069833A834B835C830E94B71626
:1027000029813A814B815C810E94291603C060E0D7
:1027100070E0CB010F900F900F900F90DF91CF9151
:1027200008954F925F926F927F92AF92BF92CF9235
:10273000DF92EF92FF920F931F93CF93DF93CDB76A
:10274000DEB729013A01621B730B840B950B2989B3
:102750003A894B895C892A193B094C095D09298B07
:102760003A8B4B8B5C8B9B01AC0169897A898B8995
:102770009C890E94F715E418F50806091709A801B5
:1027800097010E9429162A0D3B1D4C1D5D1DCA0193
:10279000B901DF91CF911F910F91FF90EF90DF90E2
:1027A000CF90BF90AF907F906F905F904F900895C3
:1027B0005058BB27AA270ED075C166D130F06BD117
:1027C00020F031F49F3F11F41EF45BC10EF4E0954C
:1027D000E7FB51C1E92F77D180F3BA17620773077E
:1027E0008407950718F071F49EF58FC10EF4E095FB
:1027F0000B2EBA2FA02D0B01B90190010C01CA01BB
:10280000A0011124FF27591B99F0593F50F4503E65
:1028100068F11A16F040A22F232F342F4427585F57
:10282000F3CF469537952795A795F0405395C9F76F
:102830007EF41F16BA0B620B730B840BBAF0915027
:10284000A1F0FF0FBB1F661F771F881FC2F70EC0C6
:10285000BA0F621F731F841F48F487957795679599
:10286000B795F7959E3F08F0B3CF9395880F08F082
:102870009927EE0F979587950895D9D008F481E0B0
:1028800008950CD00FC107D140F0FED030F021F4F4
:102890005F3F19F0F0C0511139C1F3C014D198F362
:1028A0009923C9F35523B1F3951B550BBB27AA27D1
:1028B00062177307840738F09F5F5F4F220F331F43
:1028C000441FAA1FA9F333D00E2E3AF0E0E830D00F
:1028D00091505040E695001CCAF729D0FE2F27D012
:1028E000660F771F881FBB1F261737074807AB07E0
:1028F000B0E809F0BB0B802DBF01FF2793585F4F55
:102900002AF09E3F510568F0B6C000C15F3FECF36E
:10291000983EDCF3869577956795B795F7959F5F19
:10292000C9F7880F911D9695879597F90895E1E06D
:10293000660F771F881FBB1F621773078407BA07CC
:1029400020F0621B730B840BBA0BEE1F88F7E09527
:10295000089504D06894B111D9C00895BCD088F00E
:102960009F5790F0B92F9927B751A0F0D1F0660F7B
:10297000771F881F991F1AF0BA95C9F712C0B13096
:1029800081F0C3D0B1E00895C0C0672F782F8827A9
:10299000B85F39F0B93FCCF3869577956795B395D5
:1029A000D9F73EF490958095709561957F4F8F4F44
:1029B0009F4F0895E89409C097FB3EF49095809549
:1029C000709561957F4F8F4F9F4F9923A9F0F92FF5
:1029D00096E9BB279395F695879577956795B79573
:1029E000F111F8CFFAF4BB0F11F460FF1BC06F5F59
:1029F0007F4F8F4F9F4F16C0882311F096E911C06B
:102A0000772321F09EE8872F762F05C0662371F08B
:102A100096E8862F70E060E02AF09A95660F771F9F
:102A2000881FDAF7880F9695879597F90895990F7B
:102A30000008550FAA0BE0E8FEEF16161706E80788
:102A4000F907C0F012161306E407F50798F0621BA9
:102A5000730B840B950B39F40A2661F0232B242B7E
:102A6000252B21F408950A2609F4A140A6958FEF9D
:102A7000811D811D089597F99F6780E870E060E0EF
:102A800008959FEF80EC089500240A941616170607
:102A900018060906089500240A941216130614064F
:102AA00005060895092E0394000C11F4882352F0B2
:102AB000BB0F40F4BF2B11F460FF04C06F5F7F4F6A
:102AC0008F4F9F4F089557FD9058440F551F59F051
:102AD0005F3F71F04795880F97FB991F61F09F3F0B
:102AE00079F087950895121613061406551FF2CF34
:102AF0004695F1DF08C0161617061806991FF1CF84
:102B000086957105610508940895E894BB276627AA
:102B10007727CB0197F908958ADF08F48FEF08959E
:102B20000BD0C0CFB1DF28F0B6DF18F0952309F045
:102B3000A2CFA7CF1124EACFC6DFA0F3959FD1F390
:102B4000950F50E0551F629FF001729FBB27F00D5B
:102B5000B11D639FAA27F00DB11DAA1F649F6627B0
:102B6000B00DA11D661F829F2227B00DA11D621FFF
:102B7000739FB00DA11D621F839FA00D611D221FB9
:102B8000749F3327A00D611D231F849F600D211D9D
:102B9000822F762F6A2F11249F5750408AF0E1F040
:102BA00088234AF0EE0FFF1FBB1F661F771F881F89
:102BB00091505040A9F79E3F510570F05CCFA6CFD1
:102BC0005F3FECF3983EDCF3869577956795B79574
:102BD000F795E7959F5FC1F7FE2B880F911D96959E
:102BE000879597F9089523DF880B990B0895DB01EA
:102BF0008F939F930E944816BF91AF91A29F800D23
:102C0000911DA39F900DB29F900D11240895A1E2F4
:102C10001A2EAA1BBB1BFD010DC0AA1FBB1FEE1F56
:102C2000FF1FA217B307E407F50720F0A21BB30BA1
:102C3000E40BF50B661F771F881F991F1A9469F71D
:102C400060957095809590959B01AC01BD01CF0179
:102C50000895052E97FB1EF400940E94401657FD20
:102C600007D00E94071607FC03D04EF40C944016C0
:102C700050954095309521953F4F4F4F5F4F0895A8
:102C800090958095709561957F4F8F4F9F4F0895D8
:102C90000E945916A59F900DB49F900DA49F800D82
:102CA000911D11240895EE0FFF1F0590F491E02D62
:102CB0000994A29FB001B39FC001A39F700D811D15
:102CC0001124911DB29F700D811D1124911D089535
:102CD0008F929F92AF92BF92CF92DF92EF92FF922C
:102CE000CF93DF93EC01688179818A819B816115A3
:102CF00071058105910521F464E279ED8BE597E09A
:102D00002DE133EF41E050E00E94291649015A01BC
:102D10009B01AC01A7EAB1E40E9448166B017C015B
:102D2000ACEEB4EFA50194010E94EC16C60ED71EBE
:102D3000E81EF91EF7FE06C081E0C81AD108E108B6
:102D400080E8F80AC882D982EA82FB82C701B6010C
:102D50009F77DF91CF91FF90EF90DF90CF90BF9062
:102D6000AF909F908F9008950E946816089580E01C
:102D700091E00E946816089560930001709301012C
:102D80008093020190930301089581E090E0F8940C
:102D90000C94F116FB01DC0102C001900D92415030
:102DA0005040D8F70895F999FECF92BD81BDF89AA9
:102DB000992780B50895262FF999FECF1FBA92BDA5
:102DC00081BD20BD0FB6F894FA9AF99A0FBE01960C
:102DD0000895B7FF0C9448160E944816821B930B67
:062DE0000895F894FFCFF6
:102DE600010000000100680C680C015072696D69F1
:102DF6006E6720796D696E202620796D61783A209C
:102E06000053657474696E6720796D696E3A2000A7
:102E16003B20796D61783A20005570646174696E63
:102E26006720796D696E3A2000593A207261773DC4
:102E3600002C2066697865643D003B20633D003BBD
:102E4600207A3D004265666F72653A20003B20613C
:102E5600667465723A20003B20636865636B737520
:102E66006D202830780029206D61746368657321B0
:102E7600003B20636865636B73756D204641494C62
:102E8600203A2800616C6C3A2000636B73756D3ACA
:102E9600203078007478727820696E697469616C84
:102EA600697A6174696F6E6C6F6C6F6C00416464F3
:102EB600726573733A20003B204964656E746974C9
:102EC600793A2000696E6974206661696C656400F0
:102ED600566F6C746167653A200044656C61793A97
:102EE600200054696D6520656C61707365642028E7
:102EF6006D73293A2000000000006906E20EE20E1A
:102F0600E20EE20E8D069F06E406AD066E0671061B
:102F1600740677067A066B068106840687068A0695
:102F260000000000E20E2A072B07E20EE20E2C0735
:102F360030073407050004040000000044074B076F
:102F46004F07530792072C0730073407000000008D
:102F5600AA07E20EE20EE20EE20E8D069F06E406D8
:102F6600AD066E067106740677067A066B0681064E
:102F7600840687068A060D0E131516191A1C2325B4
:102F860026292A2C323400000000F60BB80B880ADA
:102F96006E0B860A8D06130BE406AD066E067106E9
:102FA600740677067A066B068106840687068A0605
:102FB60000000000620FDE10E40EFD0EEF0E400F63
:102FC6000D0A006E616E00696E66006F7666002EF1
:022FD6000000F9
:00000001FF
